:100000000006002001290000A9250000A925000004
:1000100000000000000000000000000000000000E0
:10002000000000000000000000000000A925000002
:100030000000000000000000A9250000A925000024
:10004000A9250000A9250000A9250000A925000078
:10005000A9250000A9250000A9250000A925000068
:10006000A9250000A9250000A9250000A925000058
:10007000A9250000A9250000A9250000A925000048
:10008000A9250000A9250000A9250000A925000038
:10009000A9250000A9250000A9250000A925000028
:1000A000A9250000A9250000A9250000A925000018
:1000B000A9250000A9250000A9250000A925000008
:1000C000A9250000A9250000A9250000A9250000F8
:1000D000A9250000A9250000A9250000A9250000E8
:1000E000A9250000A9250000A9250000A9250000D8
:1000F000A9250000A9250000A9250000A9250000C8
:10010000A9250000A9250000A9250000A9250000B7
:10011000A9250000A9250000A9250000A9250000A7
:10012000A9250000A9250000A9250000A925000097
:10013000A9250000A9250000A9250000A925000087
:10014000A9250000A9250000A9250000A925000077
:10015000A9250000A9250000A9250000A925000067
:10016000A9250000A9250000A9250000A925000057
:10017000A9250000A9250000A9250000A925000047
:10018000A9250000A9250000A9250000A925000037
:10019000A9250000A9250000A9250000A925000027
:1001A000A9250000A9250000A9250000A925000017
:1001B000A9250000A9250000A9250000A925000007
:1001C000A9250000A9250000A9250000A9250000F7
:1001D000A9250000A925000000F002F800F0ADF804
:1001E0000CA030C8083824182D18671EA246AB464C
:1001F00054465D46AC4201D100F09FF87E460F3E6A
:10020000B6460FCC0126334200D0FB1A3343A24638
:10021000AB461847604D0000804D000000230024CD
:1002200000250026103A01D378C1FBD8520700D32D
:1002300030C100D50B60704710B56E2902D100F0B7
:1002400085FC10BD702902D100F021FA10BD66298D
:1002500002D104F0E5FA10BD652902D104F0E0FAFC
:1002600010BD672902D104F0DBFA10BD612902D16B
:1002700004F0DEFA10BD03681B0A01D38023194382
:10028000692902D100F08EF910BD642902D100F075
:1002900089F910BD752902D100F084F910BD6F29CC
:1002A00002D100F045FD10BD782902D100F0DCF943
:1002B00010BDE92902D100F0E1FC10BDE42902D112
:1002C00000F0DCFC10BDF52902D100F0D7FC10BD18
:1002D000EF2902D100F038FD10BDF82902D100F05D
:1002E000D1F910BD0368DB0901D3802319436329C9
:1002F00002D101F0C4F910BD732902D101F0C7F990
:1003000010BDE32902D101F0D1F910BDF32902D1CA
:1003100001F0D4F910BD002010BD1FB501F0F4F9B3
:1003200004000020002104F0F7F9401C6060002068
:10033000002104F007FAE0601FBD0648854603B4BB
:1003400002F0EAFD03BC01F083FD01F097FD02F02D
:10035000F1FE00000006002070B505460C4616466A
:1003600002E00FCC0FC5103E102EFAD2082E02D399
:1003700003CC03C5083E042E07D301CC01C5361FAC
:1003800003E021782970641C6D1C761EF9D270BDC3
:100390007047000000487047BC0D002070B504464F
:1003A000051F00F015FB0068002C1AD0446801E01E
:1003B00020466468002C01D0AC42F9D301680A18C9
:1003C000AA4204D12A6805468918016000E0456008
:1003D00028684119A14205D1616869602168401807
:1003E000286070BD6C6070BD10B5202A04DB01462A
:1003F000203A9140002010BD914020239C1A0346D2
:10040000E3401943904010BD10B5202A04DB084694
:10041000203AD040002110BD0B462024D340D040CC
:10042000A21A91400843194610BD4343514330B5C9
:100430005C18010C130C0D4692B25D4380B251431F
:100440002C19054655430A0C09044D1962415843BD
:10045000010C00044019514130BDFEB50446104660
:100460000D46184373D0A6468C460020A41A0146B8
:100470009D4167D36646002701243D46B61A9D413B
:1004800002D313463A462124654676462F04360C9D
:100490003E432D0CB61A9D4104D3150C1B042B436F
:1004A00012041034654676462F06360A3E432D0A5E
:1004B000B61A9D4104D3150E1B022B4312020834B9
:1004C000654676462F0736093E432D09B61A9D41EB
:1004D00004D3150F1B012B431201241D65467646DC
:1004E000AF07B6083E43AD08B61A9D4104D3950F39
:1004F0009B002B439200A41C65467646EF077608C6
:100500003E436D08B61A9D411AD392185B41641C94
:1005100016E00018764665464941B71A9D4101919B
:10052000009009D36046B11A98418E4684460098DF
:1005300001990025401C6941DD0752082A435B08E8
:10054000641EE6D57246634603B0F0BDFFE7204661
:10055000284307D00020C0430146C046C04622467B
:100560002B46F1E700200146F7E700007CB51D4669
:1005700016460C00009001D00019401E084B7B4429
:100580002A4669460190304600F0F9FA002C0546EB
:1005900003D06946002000F005FB28467CBD000022
:1005A0002D060000F7B5002575291068009914A6DE
:1005B00011D000F038FA002802DA404211A608E013
:1005C000009909688A0701D50FA602E0490704D5FA
:1005D0000EA6012501E000F02FFA009F0024243729
:1005E00004E000F071FC30313955641C0028F8D16A
:1005F0002B4632462146009800F050FAFEBD00001E
:10060000000000002D0000002B0000002000000072
:10061000F8B50F460188090502D5224C7C4402E05A
:10062000204C7C440E3405460021243508E0160792
:100630001209360FA65D6E541E0732431B09491C72
:1006400016461E43F3D1224604780023240705D51D
:10065000702F06D0002901D00223113200F01EFABB
:10066000F8BD01231032F9E770B504460D46214666
:10067000106800F0E1F90023024629462046FFF702
:10068000C7FF70BDD21DD308DB000CCBC0E730B470
:10069000036820241268234303600823C36130BC2D
:1006A0000023B5E720420000F3B50446002081B0E6
:1006B00020622046E1688847002872D0252802D0B1
:1006C0006268A168ABE0594F00267F442046E1688C
:1006D00088472028054608DB312D06D278192038B6
:1006E0000078002801D00643F0E7B00701D50420C8
:1006F00086430020E0610746A0612A2D0AD02846E3
:1007000004F002F8002827D0B8000019303D00900E
:10071000856119E00298BA00121902C8916102902D
:100720002046E1688847012F054617D1E069002877
:100730001FDA202086431CE000980A218069484384
:1007400000994019303888612046E168884705469D
:1007500003F0DAFF0028EFD1012F0AD02E2D08D1A7
:100760002046E16888470546202006437F1C022F6B
:10077000C3DBA069002803DA4042A06101200643E0
:10078000F00701D0102086436C2D0BD0682D09D0C6
:100790004C2D3CD06A2D38D0742D38D07A2D36D0DF
:1007A00016E040E0E1682F4620468847B8420546FB
:1007B00009D16C2F29D001208002E1680643204630
:1007C0008847054604E06C2F1DD0FF20013006430A
:1007D000002D28D028464138192803D80120C0020E
:1007E00006432035204626602946029A1646FFF722
:1007F00023FD002810D001280BD0F61DF008C00002
:100800000830029055E74020E1E78020D5E700203E
:10081000D3E7361D02964CE762682846A1689047E8
:10082000206A401C44E7206AFEBD00009A41000097
:10083000F8B5042A2CD3830712D00B78491C037017
:10084000401C521E83070BD00B78491C0370401CC0
:10085000521E830704D00B78491C0370401C521EA3
:100860008B079B0F05D0C91ADF002023DE1B08C9A8
:100870000AE0FFF771FDF8BD1D4608C9FD401C46A2
:10088000B4402C4310C0121F042AF5D2F308C91A31
:10089000521EF0D40B78491C0370401C521EEAD43F
:1008A0000B78491C0370401C012AE4D409780170BC
:1008B000F8BD01E004C0091F0429FBD28B0701D554
:1008C0000280801CC90700D00270704700290BD03D
:1008D000C30702D00270401C491E022904D38307BB
:1008E00002D50280801C891EE3E70022EEE7002289
:1008F000DFE70000024670B50A4392072AD11E4D79
:10090000EE0104C808C9541B9443344017D0D0B238
:10091000D9B2401A2106014310D190B299B2401ABF
:10092000210401430AD110021902000A090A401ADF
:100930002102014302D1100E190E401A70BD9A42D5
:10094000DFD010BA19BA884201D9012070BD002049
:10095000C04370BD02780B78401C491C002A09D0A6
:100960009A4207D102780B78401C491C002A01D01A
:100970009A42EFD0D01A70BD010101017047704753
:10098000704710B501469E240002CA15A307002A2D
:1009900002D01843002A04DBA21A002A0CDDD04042
:1009A00010BD1206120E01D140004008A21A03D455
:1009B000D04040420028F3DDFF224800120690425A
:1009C00001D9002010BDC817C043584010BD704762
:1009D00000487047C00D002070B504468569006866
:1009E000C10601D5302600E02026C00707D070BD23
:1009F00062683046A1689047206A401C20626D1EE4
:100A0000F6D570BD70B5044685690078C00707D17A
:100A100070BD6268A16820209047206A401C206257
:100A20006D1EF6D570BD09684A0501D540B2704704
:100A3000C905FCD500B2704709684A0501D5C0B2A6
:100A40007047C905FCD580B2704770B50C460546A5
:100A5000012A05D02878800600D5EA69002302E043
:100A6000012305E05B1C934202D2E05C0028F9D12F
:100A7000A869E618C01AA861286AC0182862284622
:100A8000FFF7AAFF04E06A682078A968641C904711
:100A9000B442F8D32846FFF7B5FF70BDFFB5044652
:100AA0000D4681B0243000902168880604D51022BC
:100AB000E0699143216000E00120A84201DD471B6D
:100AC00000E000270498A1697A191018081AA0619B
:100AD0002078C00602D42046FFF77EFF002608E0FB
:100AE00003986268A168805D9047206A401C761C6C
:100AF000206204988642F3DB2078C0060AD520469F
:100B0000FFF76AFF06E06268A16830209047206A1C
:100B1000401C206238467F1E0028F4DC07E0009865
:100B20006268A168405D9047206A401C20622846A8
:100B30006D1E0028F3DC2046FFF764FF20780006D6
:100B400002D5022005B0F0BD0120FBE71168026864
:100B5000006A530501D5087009E0D30501D5088066
:100B600005E0130602D5C21705C100E008600120A8
:100B70007047000001694A1C02610878704700B59F
:100B80008FB00291002105910549019379440391A9
:100B9000114604906846FFF787FD0FB000BD0000C6
:100BA000E5FFFFFF0A681070521C0A6070470CC90D
:100BB00008399A4202D2531C0B6010707047000033
:100BC000F7B50446154686B02B487844002703C87D
:100BD0003E460090019111E007986A467100415A23
:100BE00002A800F06FFD411C07D02178890603D5CB
:100BF000E269391891420ED83F18761C2078800699
:100C000002D5E069B84206DDAE42E5DB0798710027
:100C1000405A0028E0D1A069C01BA0612046FFF720
:100C2000DBFE154878445A3803C800900020019133
:100C300016E041006A460798415A02A800F042FDBA
:100C40000590401C0AD0002505E0626802A8A16852
:100C5000405D90476D1C05988542F6D30498401C72
:100C6000B0420490E5DB206AC01920622046FFF7FD
:100C7000C9FE09B0F0BD0000AE3C0000F7B5D21DC2
:100C80000025D20815A6D200F52905CA11D0002AE0
:100C900005DA00214042914111A60A4608E0009978
:100CA00009688B0701D50FA602E0490701D50EA6FA
:100CB00001251146009F0024243704E000F020F9AC
:100CC00030323A55641C02460A43F7D12B4632466D
:100CD00021460098FFF7E2FEFEBD00000000000084
:100CE0002D0000002B0000002000000070B504461D
:100CF0000021243408E05507D2086D0F30356554C3
:100D00005D072A43DB08491C15461D43F3D10468DF
:100D1000002310A2250708D520252C400C4304D021
:100D2000C46901230CA2641EC461FFF7B7FE70BD45
:100D300010B5044621461068FFF77EFE00230246E8
:100D40002046FFF7D3FF10BDD21DD108C9000CC942
:100D5000CCE7000000000000300000000022030982
:100D60008B422CD3030A8B4211D300239C464EE0C6
:100D700003460B433CD4002243088B4231D3030982
:100D80008B421CD3030A8B4201D394463FE0C30934
:100D90008B4201D3CB01C01A524183098B4201D34C
:100DA0008B01C01A524143098B4201D34B01C01A37
:100DB000524103098B4201D30B01C01A5241C308AF
:100DC0008B4201D3CB00C01A524183088B4201D31E
:100DD0008B00C01A524143088B4201D34B00C01A0A
:100DE0005241411A00D201465241104670475DE01F
:100DF000CA0F00D04942031000D3404253409C46E2
:100E0000002203098B422DD3030A8B4212D389019E
:100E1000FC2212BA030A8B420CD3890192118B4235
:100E200008D3890192118B4204D389013AD09211DF
:100E300000E08909C3098B4201D3CB01C01A52419A
:100E400083098B4201D38B01C01A524143098B4263
:100E500001D34B01C01A524103098B4201D30B014C
:100E6000C01A5241C3088B4201D3CB00C01A524171
:100E700083088B4201D38B00C01A5241D9D2430858
:100E80008B4201D34B00C01A5241411A00D2014695
:100E90005241104663465B1001D34042002B00D5FF
:100EA0004942704763465B1000D3404201B5054993
:100EB000002802DC491C084000E00846C046C04645
:100EC00002BD00BFFFFFFF7F01468008081A02092C
:100ED0001018020A1018020C1018C008820012180C
:100EE0005200891A01E0401C0A390A29FBD27047D6
:100EF00010B500F009FC001D10BD00BF1D3800003A
:100F00000B4670B5024689078008084319469D08BC
:100F1000141AA94125090807054308092C19484155
:100F2000250A01060D43010A2C194141200C0D042C
:100F300028430D0C00194D41002140194D41C008B6
:100F400069070843E908840F8D00254384002418AD
:100F50004D4124196D41121BAB4107E00925ED43BA
:100F60002C11521963410024401C61411C460A2582
:100F70000026551BB441F1D270BD0000FFB50C46F0
:100F80001E468FB003CA089009914F007D0D00D115
:100F90006D1E002108460020C0460321099A8905DC
:100FA0000840002A03DA8200801840080840800DBB
:100FB00001280A9002DD0020C0430A9008980743E8
:100FC0000DD0F048F0492818484307141898002815
:100FD0001DD07542291E1DDD0A9842421BE018985B
:100FE000012802D00020302104E00020F24305E077
:100FF0002154401CB042FBDB30460022189B0021EC
:1010000021540F998B600A60486013B0F0BDBD1B7E
:101010006D1CDFE70A9A002900DA69420BA800F08C
:10102000BBFB0BAB07CB03AB07C30899099800F0D8
:101030001FFC6B4607C30146D4480918002D0091D8
:101040000BDDD24903980A9A49424018002303A9AC
:101050000390684600F07CFE08E003990A9A00239A
:10106000081803A90390684600F01CFE6B4607C3EE
:101070000004000C03D00020C043410800E01046EB
:10108000189A002A03D00022009215461EE0751E11
:1010900005D4FFF735FF303262556D1EF9D50122B8
:1010A0000843079602D000227F1C04E020783028F5
:1010B00001D100227F1E002A069787D01EE0112D45
:1010C00007DAFFF71DFF303262556D1C02460A43F6
:1010D000F5D1084303D00098002819D00EE0002174
:1010E000681E05E0235C625C63542254401E491C68
:1010F0008142F7DBA81B401E07950690079A1899B6
:101100000020A0540F98079B069A81600CC07CE7D2
:1011100011260020189059E7D21DF0B50D4604465F
:10112000D10893B0C90003C90C900D9103F0D6FA11
:1011300002460D98C00F01D02D2007E020688107DE
:1011400001D52B2002E04007C00F4001032A0F9079
:1011500001D0072A05DB03462946204600F0D8FACD
:101160000EE12078800601D5E76900E006272846D1
:10117000652D04D0662814D0672D69D12DE000209C
:10118000112F009001DB112300E07B1C0CAA03A9A6
:1011900010A8FFF7F3FE1199002610987D1C0E9100
:1011A00042E001203B460CAAC0070B9001200090B2
:1011B00003A910A8FFF7E2FE119D129810990026CE
:1011C00000280E9501D1781C0D18781B02D44642D8
:1011D0007D1C761EE81B00903AE0012F00DA012703
:1011E0000020112F009001DD112300E03B460CAAE6
:1011F00003A910A8FFF7C2FE11993D4610980026DA
:101200000E91217809070BD40E99A94200DA0D46F8
:1012100003A9012D04DD4A19203AD27F302A06D0D5
:10122000B84201DA011D04DA012100910FE06D1EC0
:10123000EFE7002802DC86192D1A03E0411CA942C1
:1012400000DD0D46801B401C00900120C0070B9064
:101250002078000705D40098A84202DB0020C04394
:10126000009069460020C8720B98012102AF033735
:10127000C907884225D0022010902B2011900B988E
:1012800000280BDA40420B902D20119006E00B98BD
:10129000FFF71AFE30317F1E0B9039701099481EEF
:1012A00000291090F3DC0B980028F0D111987F1ED4
:1012B00038702088000501D5452000E065207F1E9C
:1012C000387001A8C01BC01D0B900F98002800D0DB
:1012D000012041190098C01709180B980818A16936
:1012E000081A401EA0612078C00602D42046FFF7ED
:1012F00073FB0F98002805D06268A1689047206AA8
:10130000401C20622078C00625D52046FFF764FBEC
:1013100021E0002E07DB0E98B04204DD03A86268CE
:10132000805DA16802E06268A16830209047206A71
:10133000761C401C20620098401E002800900AD1B4
:1013400000F0E2F9C06862680168405CA1689047FB
:10135000206A401C206228466D1E0028D9DC07E068
:1013600062683878A1687F1C9047206A401C206220
:101370000B99481E00290B90F2DC2046FFF742FB38
:10138000032042E601FCFFFF104D0000E1DFFFFFFC
:10139000D21DF0B504460D46D0088DB0C000466899
:1013A00007683146384603F099F90246F00F01D03C
:1013B0002D2307E02068810701D52B2302E0400799
:1013C000C00F43016846002B037001D0012000E0EC
:1013D0000020032A0A9001D0072A04DB2946204670
:1013E00000F096F92DE12078800601D40D2500E06B
:1013F000E5697000400D0D2D01904BDA300D002194
:101400000B9008460020C046032189050840002EA5
:1014100005DA82008018C20F1018401008408015AD
:10142000012801DD0020C043A9000023182906D3AC
:101430009C460A460123183A1B07D34003E00122C9
:101440001205CA4094460C31202902D33A4620396D
:1014500000E032468A40002802DD002A06D119E069
:10146000002817D10121C9078A4213D319466346C0
:101470007F185E41002806D10120C007824202D1B8
:10148000084687439E430B98310D814202D0019854
:10149000401C01902088000502D57149794402E082
:1014A0006F49794419396B460A9830221A540A98C0
:1014B0000A7C401C1A54401C0A900198002801DC48
:1014C000302000E031201872019A0120002A02D059
:1014D000644BD21804E072003A4302D0614A521CB5
:1014E0000192002D02DC2278120703D56A462E20D5
:1014F000507202200022864694460CE032033601E8
:10150000120F6D1E8B5C02AA13546246521C401CC3
:101510009446052A01DA002DF0DC002202AE08E034
:101520003B0F3F01CB5C521C6D1E3354401C082AFC
:1015300001DA002DF4DC23689A0601D511E0401E83
:10154000704504DD3218203AD27F302AF7D00028C7
:1015500007DD3218203AD27F2E2A02D11A0700D492
:10156000401E002D03DD3E223254401C6D1E497C7E
:1015700031540199401C002906DA2D21471C3154B1
:1015800001984042019003E02B21471C31540198FF
:101590007D21C900884206DBFFF7EAFB3030F055B9
:1015A0007F1C019101E0642808DB01986421FFF7AA
:1015B000DFFB3030F0557F1C019101E00A2806DB8B
:1015C00001980A21FFF7D4FB3030F0557F1C0198B9
:1015D0000A21FFF7CDFB3031F1550A98A1697F1C34
:1015E0007A191018081AA0612078C00602D4204683
:1015F000FFF7F2F9216A6E460A980818206204E0A3
:1016000062683078A168761C90470A98401E0A905C
:10161000401CF5D12078C00602D52046FFF7DCF942
:1016200002AE09E03078761C3E280DD06268A168D1
:101630009047206A401C20627F1EF3D22046FFF7AD
:10164000E1F90DB00320F0BD206A4019206203E0EB
:101650006268A168302090476D1EEDD3F8E7000066
:10166000F733000001FCFFFF10B54369002B02D0E7
:10167000C046C04601E0FFF7E8F9012010BD12782E
:10168000014624310A7000224A700122ECE71168F9
:101690000022D243E8E710B54369002B02D0C046D0
:1016A000C04601E0FFF78CFA012010BD1288014608
:1016B000243182840022C2840122ECE711680022D6
:1016C000D243E8E7F8B516460C460546FFF710FC8E
:1016D0000368FF200230C05C012807D0FF2C0FD820
:1016E000185D00280CD001202C70F8BDFF33324665
:1016F000214608331868C71828460023B847F8BDA4
:101700000020C043F8BD000000487047C40D002011
:10171000F8B51F46044601230068DB020326014694
:101720001840072A05DB002801D017A506E017A5F9
:1017300004E0002801D016A500E016A51020814382
:101740002160A069C01E002FA06101D0401EA061D1
:101750002046FFF741F9002F09D038466268A1689A
:101760009047206A401C2062C01C206206E0206A6C
:10177000FAE762682878A1686D1C9047761EF8D257
:101780002046FFF73FF9F8BD4E414E006E616E00F6
:10179000494E4600696E6600F7B516468AB0334872
:1017A00078446C4603467C33C06F5A689B680DC40E
:1017B0002E487844763003AC0DC80DC43720C001E4
:1017C000081837211B30FFF7D3FA05460C46803D39
:1017D0001B3C02D56442012000E000200027099054
:1017E00010E0E0070CD00C202049784379443246C1
:1017F0004C3941186846012300F054FA6B4607C380
:1018000064107F1C002CECD1184F7F442E3F16E053
:10181000E80712D02001C0190EC80691089307925C
:101820000068F04201D1981908903246012306A9B8
:1018300003A800F037FA03AB07C36D10641C002D3A
:10184000E6D10998002806D032466946012303A84C
:1018500000F07EFA05E001233246694603A800F055
:1018600021FA0A9B07C30DB0F0BD0000083100004B
:10187000034640000A4610B5400D0BD00121C907B0
:101880000F24A40200191C0364082143540D2143B2
:10189000D20207E000210120F2E7D40F49002143E2
:1018A0005200401E0029F8DADB0FDB07184310BD99
:1018B000FFB50D46144685B04868516802F0F6FE43
:1018C00000910190A868A16802F0F0FE02910390D7
:1018D000A868616802F0EAFE029A12188242029237
:1018E00001D2012000E00020019A0B18D218002834
:1018F000019202D08A4202D903E08A4201D2012039
:1019000000E000200099081800906868A16802F0C3
:10191000CDFE029A12188242029201D2012000E00A
:101920000020019A0B18D2180028019202D08A4296
:1019300002D903E08A4201D2012000E00020009990
:1019400008180090286821684000490040084908AC
:101950004018FA49471814E001994000C90F08439C
:101960000090019802994000C90F08430190029825
:1019700003994000C90F08430290039840007F1E5E
:10198000039000980028E7DA0898002801D0EC4E70
:1019900000E00026B74201DA012000E00020002824
:1019A00004902AD0F71BF806C00E15D0029B202108
:1019B000091A039A8B401A430392029A019BC24070
:1019C0008B401A430292019A009BC2408B400099BF
:1019D0001A430192C14000917B110DD06F46032044
:1019E000C11A03D500218200B95003E08A008100AA
:1019F000BA587A50401EF3D537460398029900280A
:101A000000D00120014308980291002808460CD01C
:101A1000002800D001200199019A490508430121BD
:101A2000D20AC902D202019200E001210E9B0122DA
:101A3000D207012B02D0002B03D013E0002807D1DE
:101A400020E0904204D890420CD1019B0B4209D077
:101A5000019B5918019105D10099491C009101D1B0
:101A60007F1C009200280DD0102108460020C0469F
:101A70000498002806D00F98002803D008210846B3
:101A80000020C04628682168019B009A4840C10F89
:101A90000598C90739430EC009B0F0BDFFB587B03E
:101AA000099A089808995368926840688968964628
:101AB0000022039317469446089A12685300099A25
:101AC0005B081268520052089A1A9E4BD4180A9A60
:101AD000002A01D0352200E0402206920022012394
:101AE00015460492DB07059324E0002D05D17546C9
:101AF0000346039E4D1BB34109D375466646039BBF
:101B0000491B049D9841059B7519AC465F4163468E
:101B10003B4308D0059B049EDD0776082E435B08F7
:101B20000496059301E0521E641EC50FED07491887
:101B30004041521C069B9A42D7DB002D04D17546CA
:101B4000039A6B1A824101D203200CE0039A0B46E0
:101B50006B404240134303D0014303D0012002E015
:101B6000022000E0002061460191002100970291CF
:101B70000A99002905D0614640020143704B01914A
:101B800002E08007002302909C4201DA012000E07D
:101B9000002007003AD01A1BD006C00E15D0029DB7
:101BA0002021019C091AC5408C402543029C8C4091
:101BB00000D001242543019C0295009DC4408D4026
:101BC00000992C430194C140009154111DD06D46E1
:101BD0000221002202290CD10320001B07E000286B
:101BE00004DB8600AE59002E00D00122401C0328E1
:101BF000F5DB081B02D588002A5004E08000285835
:101C000010438A00A850491EE3D51C460A980028B4
:101C100002980CD0002800D001200199019A4905B2
:101C200008430121D20AC902D202019200E0012137
:101C3000109B0122D207012B02D0002B03D013E00E
:101C4000002807D11FE0904204D890420CD1019B9C
:101C50000B4209D0019B5918019105D10099491CEB
:101C6000009101D1641C009200280CD0102108467C
:101C70000020C046002F06D01198002803D008216C
:101C800008460020C04608980999019A009B006800
:101C900009684840C10F0798C907214382600AC0FC
:101CA0000BB0F0BD00B585B0019300920A46014625
:101CB000002302A8FFF7FCFD02A807C805B000BD7D
:101CC000FFB50A461F4685B007990193012300918D
:101CD000014602A8FFF7ECFD02990398049ECA0F83
:101CE0004900D20700920F22490892028C1A002163
:101CF000002800DB0C46450013486D08844214D3CD
:101D0000079A002A04DA441E0026104DF64302E02A
:101D100004460D460E46102108460020C046002FFE
:101D200003D0042108460020C0462005E90A0843E4
:101D3000009908436905F20A1143ADE602C0FFFFAE
:101D4000013C0000FF3F0000FF070000FFFFFF7F96
:101D500000B585B0019300920A460146002302A80F
:101D6000FFF79CFE02A807C8A8E7FFB50A461F4672
:101D700085B00799019301230091014602A8FFF75E
:101D80008DFE02990398049ECA0F4900D207009263
:101D90000F22490892028C1A0021002800DB0C4611
:101DA000450011486D08844214D3079A002A04DACA
:101DB000441E00260D4DF64302E004460D460E4635
:101DC000102108460020C046002F03D004210846F9
:101DD0000020C0462005E90A084300990843690528
:101DE000F20A114358E60000FF070000FFFFFF7FE3
:101DF00070B58D180478401CA207920F01D10278AB
:101E0000401C231106D10378401C03E00678401CD7
:101E10000E70491C521EF9D1002B15D002780C26E9
:101E200034408A1A401C0C2C03D0A401121B9B1CAA
:101E300008E004782402121B401CF8E714780C70A8
:101E4000491C521C5B1EF9D5A942D3D3002070BD9A
:101E5000054909B9064800E0044811B90649FEF7EA
:101E60005CBA0449FEF759BAC0000000401F0020C8
:101E7000401F0020002000200000002080B501F05D
:101E800021FE80BC01BC864601F0EEBC1F21014052
:101E900001228A40800F80001B49435893434350DE
:101EA0007047C04680B57146C90713D1411C0BD09D
:101EB0002949083140F24C220B1F1B68834206D08F
:101EC0000C3A0C31002AF7D1244801F0FDF80968DA
:101ED0000029F9D0FFF7DAFF80BC01BC86467046C6
:101EE000714672467346F4468EF300887447C046C6
:101EF0001F21014001228A40800F8000024943587F
:101F0000134343507047C0460402004080B57146F9
:101F1000C90713D1411C0BD00F49083140F24C22A4
:101F20000B1F1B68834206D00C3A0C31002AF7D1F4
:101F30000A4801F0C9F809680029F9D0FFF7D8FF6D
:101F400080BC01BC86467046714672467346F446B4
:101F50008EF300887447C046244A00008F4E00006C
:101F6000F0B588B001252C04AA4B1A6C22431A64E0
:101F70001E68494C48B1042216431E6026461A6D5D
:101F8000D2060BD4761CFAD308E0012216431E6059
:101F900026461A6DD20701D1761CFAD33F4A8E1815
:101FA0003F4A964262D8434A0023914200D31D46DD
:101FB0003D4A03269142344600D32C46019002202C
:101FC0009142029000D32846009481400691D84364
:101FD0000790394D394904930393B01E04280596A0
:101FE00028D8E548B0FBF6F044000023029A1046DA
:101FF000604347198F4210D80E462946069D2F1A76
:1020000000D2471B079887420D46314605D25FB183
:10201000981C03900797059804905B1C521C40F293
:1020200000208342E3D105E0981C03900020079034
:1020300005980490059E761C212ECED1049C60024A
:1020400040F20021401A009DA903019A1143039E0A
:10205000B21E0A430243DF4B1A64681C6043C64940
:10206000B1FBF0F0704340000B4C0DE0191F096804
:102070008905890F04D00B49084318640A4803E016
:102080000A49084318640A48196D490701D4641CB9
:10209000FAD308B0F0BDC046FF60DBFF00CA91FE76
:1020A000000E27070EC20000006CDC020E44000088
:1020B0000090D00300D8B805002847FA00EA32069D
:1020C000EF490A6802430A607047C046B0B52A4823
:1020D0000268836B052109040B4201D0002112E044
:1020E000990326490FD41C04A40F254D2C5D9D0493
:1020F000ED0E6D1C6543DB059B0D224C5C436118A6
:10210000B1FBF5F18900204B196084680723234057
:10211000022B18D0012B0DD102231A4048F20001E6
:102120001A4A0BD104681C430460126804689C437B
:10213000046004E0990016A2515804E012681206E7
:1021400001D547F6005180690F220240501CB1FBB7
:10215000F0F07549086016494118164AB1FBF2F1D2
:10216000154A1160B0BC02BC8E4671467246734679
:10217000F4468EF30088744708020040001BB70045
:10218000E0490000C0C62D004C0D002000110440A5
:10219000001BB700008000000000000010270000B6
:1021A00000000000006CDC0200000000001BB70013
:1021B00020A1070040420F00E007002080B500F09A
:1021C00017FC5948006880BC02BC8E4671467246B6
:1021D0007346F4468EF300887447C046BF480068D3
:1021E00001210140494264480840714672467346E5
:1021F000F4468EF300887447B8480068810348F2BB
:1022000000000840714672467346F4468EF300881B
:102210007447C04600020040810AC9B291B18205EC
:10222000D20E9140000C0C230340BF48C058094B0C
:10223000C0580840D040714672467346F4468EF34B
:10224000008874470020714672467346F4468EF348
:1022500000887447200200401D494118032910D806
:10226000880001A21018874600F006B800F01BB8DD
:1022700000F01DB800F01FB81648016801200840A2
:102280001DE00101490F21D0C201D20E9140800E04
:102290000C230340A548C0580E4BC01808380068EE
:1022A0000840D0400BE00B480068800706E0094872
:1022B0000068C00502E0074800688005C00F71464D
:1022C00072467346F4468EF3008874470020F6E7A2
:1022D000F0FFFF7F1802004080B500F089FB124834
:1022E00000681249096807220A40D04080BC02BC3D
:1022F0008E46714672467346F4468EF300887447E4
:1023000080B500F075FB084800680849096849066F
:10231000490FC84080BC02BC8E4671467246734667
:10232000F4468EF300887447540D002034020040B8
:102330001048016805200004014201D0002012E08D
:1023400088030D480FD40A04920F0C4B9A5C8B043F
:10235000DB0E5B1C5343C905890D094A4A4310181B
:10236000B0FBF3F08000714672467346F4468EF37C
:102370000088744740020040001BB700E04900009D
:10238000C0C62D00124801680422914301605348E1
:10239000016880229143016030BF704780B5FFF72C
:1023A000F1FF80BC01BC864670467146724673469A
:1023B000F4468EF3008874470548016804220A43F6
:1023C00002604648016880220A43026030BF7047BD
:1023D00010ED00E00002004080B5FFF7EDFF80BC8B
:1023E00001BC86467046714672467346F4468EF3CB
:1023F00000887447F0B581B0384D2E6D291F0968EB
:1024000040F200320A401F49884200D95AB11E49A1
:10241000884203D940F200139A4204D01B498842F3
:1024200000D80846014628680427384328605C48DD
:102430002A6DD20601D4401CFAD328690722024330
:102440002A61286A0F2290432862286DC00706D1AE
:102450000120C004FFF784FD04462E6D03E0002038
:10246000FFF77EFD04460220002100F011F8F0067F
:1024700002D42868B8432860204601B0F0BDC046A9
:10248000000200400090D003006CDC0200366E01B8
:10249000F0B581B0114C226D236804252B432360D5
:1024A000102616403E4A236DDB0601D4521CFAD397
:1024B000226907231A432261226A0F27BA430A437B
:1024C0002262216999430143216100F091FA16B912
:1024D0002068A843206001B0F0BDC0460002004063
:1024E00070B5830ADCB20F4B64B18505ED0EAC40CC
:1024F000050C0C262E400C4DAD595D192E69A643D6
:1025000016432E610201520F0BD0C401E40EA2400B
:10251000800E0C24044005480059C45894430C43D1
:10252000C45070BD10020040D0490000C0490000F6
:10253000B0B57346DB0713D1431C0BD00F4B0833E8
:1025400040F24C241D1F2D68854206D00C3C0C33F4
:10255000002CF7D10A4800F0B7FD1B68002BF9D01A
:10256000FFF7BEFFB0BC01BC86467046714672469E
:102570007346F4468EF300887447C046244A000030
:102580008F4E0000B0B50146054A064B01200024DD
:102590001D680D408D4202D0521CF9D32046B0BDBB
:1025A000FF60DBFF50020040FEE7F0B581B0009213
:1025B000002303221D460E46EE40F60707D0009E7C
:1025C0009E4017469F400468BC43344304609B1CF4
:1025D0006D1C102DEFD101B0F0BDF0B581B00092AF
:1025E000002303221D460E46EE40F60707D0009E4C
:1025F0009E4017469F40046BBC43344304639B1CBE
:102600006D1C102DEFD101B0F0BD0000F0B581B010
:1026100000F040FCC000684D684E2C4600D53446A2
:102620000120070400F036FCC00003D57068384272
:10263000FCD002E068683842FCD0E06B0421014322
:10264000E16301B0F0BDC046F0B581B0044600F0D2
:1026500021FCC00001D5594A00E0574A55690120C4
:1026600000900540E561906907230340E36010692D
:102670000002000F3749086010690003000F364957
:1026800008601069C004C00F344908601069000573
:10269000000F3349086010698006800F31490860D7
:1026A00010690F27384030490860D0688002800FD9
:1026B0002E490860D0680003000F2D4B1860D068C9
:1026C0004004400F2B490860D0680005000F2A4ED7
:1026D0003060D0684006400F28490860D068384014
:1026E000274908601B4800680A2778431A490A6886
:1026F000101840F2D07280182060184800687843A3
:1027000017490A68801860601648006878431649BF
:102710000A688018A0601548006878431A68801815
:10272000206145B9152804D30221216214382061A3
:1027300001E0009820620F48006878433168401833
:102740000E49096879430E4A126889186061A161CF
:1027500001B0F0BDD81E0020F01E0020D01E0020C9
:10276000E81E0020C41E0020DC1E0020C81E002021
:10277000E01E0020CC1E0020E41E0020D41E0020FD
:10278000EC1E002010B5044600F084FBC00001D50B
:102790000A4800E008480A4901600268012A03D09B
:1027A000016001680129FCD12CB1204610BC02BC9B
:1027B0008E4600F007B810BD001004400010045011
:1027C0005713EBA5F0B585B004464B4D4B4E00F0CA
:1027D00061FBC00001D5301F00E0281F002C00D194
:1027E00087E001900494012004070390070400F09F
:1027F00051FB0294204205D0049C019A3068384273
:10280000FCD004E0049C019A28683842FCD0E169BD
:10281000506919B103990843506108E0039988434E
:102820005061206A022802D1206914302061E068DA
:10283000906121690A20B1FBF0F213054243891A25
:10284000090419436269B2FBF0F31C030C434343D0
:10285000D11A09022143049A9269B2FBF0F30446AB
:102860005C43121B0A43039219010091049C2168E6
:1028700040F2D072891AB1FBF0F203465343C91AF1
:10288000090412050A436168B1FBF0F31C03144309
:102890004343C91A09022143049A9268B2FBF0F338
:1028A0005843101A08431C01044300F0F3FA02993C
:1028B000084205D00399009A30683842FCD004E001
:1028C0000399009A28683842FCD01143039101987B
:1028D0000461044600F0DEFA0299084204D003992C
:1028E00030683842FCD003E0039928683842FCD0B5
:1028F000E16005B0F0BDC04604100440041004506F
:1029000096485921162288230160026003600468FA
:10291000002CF9D00449054A0A600021016000F04A
:1029200083F8FDF759FCFEE724000040A55A00009B
:102930008A48002101607046714672467346F4462B
:102940008EF300887447C04610B5010E864A8B5836
:10295000FF242406A04301248440A3438B5010BCD1
:1029600001BC86467046714672467346F4468EF345
:102970000088744780B57146C90711D1411C09D040
:102980000E4940F24C220B68834206D00C3A0C31BF
:10299000002AF8D10A4800F097FB89680029F9D08D
:1029A0000AF08AFB80BC01BC8646704671467246BE
:1029B0007346F4468EF300887447C046244A0000EC
:1029C0008F4E000010B565485921162288230160FA
:1029D000026003600468002CF9D010BC01BC86467C
:1029E0007046714672467346F4468EF3008874470B
:1029F00080B50AF05DFB074908600AF039FB06491B
:102A00000860064940180649B0FBF1F00549086026
:102A100080BDC0464C0D0020540D002020A10700B1
:102A200040420F00E0070020F0B53B493B480860FA
:102A30003B4A032010601F233A4C25469D435560B6
:102A4000394BE3185B1E03431C208343936004202F
:102A50001060364850603648906005201060354B55
:102A60005360354B936006231360344B5360344BF3
:102A70009360072313600007506032489060083A63
:102A8000012010608A6808239A438A602E4A4A60AF
:102A90002E4A1146C3312E4B19605A600021CC4397
:102AA0009C60E332DA602B4B1C605C60A21E9A6073
:102AB000DC601C61284A5A619C611C620B2204463E
:102AC00094405D6A25435D62521EF8D102049B6A00
:102AD000934200D1F0BD214B5924162588261C6055
:102AE0001D601E601F68002FF9D01D4B11241C6053
:102AF0001C4C5C60D960186119690029FCD1996887
:102B0000491C08D19A602121D960186119690029EE
:102B1000FCD115490860FEE708ED00E00000000068
:102B2000D8ED00E000D0000000100000000001100F
:102B3000E1FF0710007E8000E37F8000002000306E
:102B4000E17F0130E1FFFF5F0000FA05FCFEFFFFBF
:102B500080E300E000F00240FFFFFFFD00010040C5
:102B600000C00040000820000800004010B50446E6
:102B700000201B498C4209DC1D498C4213D01D49A1
:102B80008C4212D01C498C420BD021E015498C425A
:102B900005D015498C4204D014498C4218D11748ED
:102BA00004E0174802E00D4800E016480AF074FA05
:102BB00002280AD140F2001004430E48844208D192
:102BC00010BC01BC86460AF06BBA80000EA1085802
:102BD00010BD10BC01BC86460AF066BA0200805ED9
:102BE000FF10054000110540001005500011055070
:102BF0000000054000010540001005400500405F51
:102C00000400005F0300C05E001BB70000800000EE
:102C1000000000000000000000000000102700007D
:102C200000000000001BB70010B50020EFF3058185
:102C300071B1354B1A68511C0AD050025C4C2058B7
:102C400018600C205043594A1318105898600846D1
:102C500010BC02BC8E46714672467346F4468EF333
:102C60000088744710B5411EEFF305820020072944
:102C700010D87AB10C224A434C4B9A1893684BB146
:102C800008320020106048021F4A1368484C235045
:102C90001160012010BC02BC8E467146724673461C
:102CA000F4468EF300887447B0B5EFF30580F8B1B1
:102CB00001213F4C3D4A002040F20023E5181560F9
:102CC0005460906021600C32491C09292C46F5D1D2
:102CD000C14340F60062364B99500B49086083F3BC
:102CE0000B8883F30988022080F31488012000E018
:102CF0000020B0BC02BC8E46714672467346F44654
:102D00008EF300887447C046500D00200146002015
:102D1000EFF30582AAB1EFF31482491E072910D8F8
:102D200002231A400DD00C224A43204989188A6890
:102D30003AB14868083180F30B88086880F3098845
:102D40000120714672467346F4468EF3008874473C
:102D5000B0B501460020EFF30582EAB1EFF314822B
:102D6000491E072918D802231A4015D00C224A43BD
:102D70000E4CA1188B687BB1EFF309834D68AB4211
:102D80000AD3A258934207D808310B60084880F351
:102D90000B8880F309880120B0BC02BC8E467146C6
:102DA00072467346F4468EF300887447D80D0020AF
:102DB000380E002000200870012070471D20704749
:102DC0001520C0437047002070471046704701200F
:102DD0007047FDF7E3BA1520C043704711B91820BA
:102DE000C0437047002070471520C04370470168FA
:102DF000896A08470020704701680B690021012299
:102E0000184701688969084703681B6918477047B4
:102E100001680B6900210A4618471520C043704716
:102E20007047000070B50F2801DD002419E0054649
:102E3000800011490C58022D13DC621C11D10E18B0
:102E4000284600F01FF8044650B9284600F01CF848
:102E5000044628B90948D0E88F0FC007084C02D0B3
:102E60003460204670BD054800F016F80028F7D001
:102E7000024800F03BF8F3E7580D0020381E002010
:102E8000980D0020002070470020704701207047F7
:102E9000112070477046704780B5014603780322C1
:102EA00013400020012B04D00B781A4002D0012AD5
:102EB00005D180BD022003430B70012080BD02A01C
:102EC0001349094A00F0FCFC2867756172642026EA
:102ED000204358415F47554152445F4D41534B2970
:102EE000203D3D2030000000E605000080B501785F
:102EF00003220A40022A04D1FC221140491C01701D
:102F000080BD02480249034A00F0DAFC2C4E000062
:102F1000634E0000EF05000090B406480168762279
:102F2000054B10C910C3521EFBD10349016090BC70
:102F300000F0CABD08ED00E000060020F0B584B046
:102F40000023002859D0002957D044692546463D22
:102F5000882D52D803680193071DA8CF284E7743C8
:102F6000009740F610676F433C255D430392029142
:102F70001AB9C82C01D1002303E00326264073426E
:102F8000734130265E431F4B9B190069800018581F
:102F900001994B19DB1900995A1810181A4A801810
:102FA000CE2C0CD100230399029E11B9174A9042EE
:102FB00023D8012907D1164A90421ED803E0472C96
:102FC0000399029E17DB1122D3435D1CC82C00DC41
:102FD0002B4601B12B4640F26D126243641EE51789
:102FE000AD0F6419A4101219D21846F2CE33D21ABA
:102FF00003495143401830600123184604B0F0BD26
:1030000080510100704C000080AEFEFF7F22310035
:10301000FFD02F000120EFF31081014048424841CA
:103020007047000080B500F0F3FA05480168491CBC
:1030300001D0016080BD03A00FA13F2200F040FC41
:10304000401E0020637269746963616C5F7365631D
:1030500074696F6E5F7265656E7472616E63795FBD
:10306000636F756E746572203C2055494E5433323F
:103070005F4D4158000000002E5C6D6265642D6F4D
:10308000735C706C6174666F726D5C736F75726384
:10309000655C6D6265645F637269746963616C2EFF
:1030A000630000000448016811B1491E016000D0AE
:1030B000704700F0BBBAC046401E0020EFF3058009
:1030C000411E88417047000083B080B581B004463E
:1030D00003A80EC001200E49D1E84F2FC1E8430FCD
:1030E000100613D175460B4800263146724600F093
:1030F000D7FA09A03146324600F080FD03A90091BD
:10310000204600F0A5FC0AA000F076FC00F0BCFC14
:103110004C1E00200001FF80466174616C205275D6
:103120006E2D74696D65206572726F72000000000B
:103130000A00000000B9FEE700F0CCFBF0B58FB04C
:1031400072460D460446D00709D10020C643606888
:103150004168A94242D880684018A8423ED9FFF78A
:1031600061FF00270C9701200B90034602909A48BC
:1031700000680A900995A0680169426989180D9153
:10318000006880180E9026460194944C1C4309A8B0
:10319000A0470697059704970395B06801694269AF
:1031A0008918079180688018089003A8A0470646F0
:1031B0000C9702980B90884800680A90099501982E
:1031C00080680169426989180D91406880180E90E5
:1031D00009A8A04706B1FE43FFF764FF30460FB0D1
:1031E000F0BC02BC8E46714672467346F4468EF3BE
:1031F000008874470020714672467346F4468EF389
:1032000000887447FF20714672467346F4468EF379
:10321000008874477146C90700D1001D0068006826
:10322000714672467346F4468EF30088744770B553
:103230007246D20718D14268506893681B18002064
:10324000C0438B4229D9D3681269D4001B191D1DB4
:10325000C3008400521E20D4EE186519083D2D6865
:103260008D423546F6D817E00268506893681B18FF
:103270000020C0438B4210D9D3681269D4001B19B7
:103280001D1DC3008400521E07D4EE186519083DA9
:103290002D688D423546F6D8306870BC02BC8E462B
:1032A000714672467346F4468EF300887447714641
:1032B000C90700D1001D00688068714672467346D8
:1032C000F4468EF3008874477146C90700D1001D8B
:1032D00000684068714672467346F4468EF3008873
:1032E000744780B500F07CF8002080BC02BC8E469C
:1032F000714672467346F4468EF3008874470000A8
:10330000F0B591B074460D46E10713D1E9184C1E93
:103310000021CE43AC4252D347687968A9424ED8C7
:10332000BF687F18AF424AD9AC4203D0A14246D809
:10333000A74244D9039302920646FFF773FE002783
:103340000E97022004900D90234800680C900B9576
:10335000B06801960169426989180F910068801868
:10336000109001201D4C04430BA8A0470897029819
:103370000790039806900595B06841690269521854
:103380000992C06840180A9005A8A047064603970E
:103390000E9704980D90104800680C900B950198BA
:1033A00080680169426989180F91406880181090FF
:1033B0000BA8A0470EB10398C643FFF773FE304633
:1033C00011B0F0BC02BC8E46714672467346F4469C
:1033D0008EF300887447C046540D0020A00D0020D5
:1033E0000349044A044B0260416083607047C04651
:1033F000104A0000FC490000E44900000048704702
:10340000404F0000F0B581B00A4604460068411CF8
:1034100021D02272617A062955D8860840F2C0333D
:103420001E40784D73190093C3B28F0001A5ED19AA
:10343000AF46C04600F011B800F01CB800F027B845
:1034400000F006B800F004B800F03DB800F02DB868
:10345000BAB3042136E001B0F0BD01261F469E40FC
:103460000022009D28463146FFF7B7F8607A012810
:1034700004D009E001261F469E40009D02222846F6
:103480003146FFF7AAF8607A02283B4605D10122AF
:10349000114699400098FFF7A0F8207A08B104215E
:1034A00000E00321617220680DE006215AB9564AF6
:1034B000B21840F2C0333C3384001C400123135146
:1034C00001E00321617201B0F0BC04BC964600F03B
:1034D00073BBC046B0B504460160481C0BD00D4616
:1034E0000021284600F040FB40F200202081E8B295
:1034F000012181406160B0BD002200F001B80000F0
:1035000070B515460E460446FFF7E4FF701C1BD04D
:103510002068411C19D0691E8D4140F2C03140F233
:10352000C0323C32830013408008084036494018BE
:10353000C55001212046FFF765FF0021204670BCE1
:1035400004BC964600F00AB870BD02480249282221
:1035500000F0B6F9E04C0000F84C0000F0B581B086
:1035600004460068421C20D0062933D8830840F264
:10357000C0352B4000228E0001A7BE19B746C046B9
:1035800000F018B800F013B800F013B800F006B857
:1035900000F004B800F01EB800F01EB8032927D1CF
:1035A00040F200312181032125E001B0F0BD02226B
:1035B00000E0012213495B18C0B201218140184686
:1035C000FFF70BF8207A08B1042100E003216172B3
:1035D000206810E061720EE006216172227A52B911
:1035E000EE4A9A183C3583002B400124D45002E067
:1035F00006492181042101B0F0BC04BC964600F0CC
:10360000DBBAC046004000500048005001040000F2
:10361000EFF31080EFF3108172B60D490A7822B9EA
:1036200001220A7082430B480270704780B5EFF3A5
:103630001080C00707D006480021017005480078B7
:1036400000B162B680BD04A00AA1362200F038F9AC
:103650002D1F00203F1E0020216172655F696E747E
:10366000657272757074735F656E61626C656428F3
:10367000290000002E5C6D6265642D6F735C6861CB
:103680006C5C6D6265645F637269746963616C5FD1
:1036900073656374696F6E5F6170692E630000000B
:1036A000F0B58BB015460C46064601A82821FDF75B
:1036B0001EF9FFF7B7FC16490868421C0A60002E85
:1036C00000DB144E68B914480660456084600C3015
:1036D00001A98CC98CC08CC98CC000949CC99CC0A9
:1036E000009C0E480660456084600C3001A91CC92E
:1036F0001CC01CC91CC03CC93CC00948016809B1B8
:10370000064888470BB0F0BC01BC8646FFF7CABC30
:10371000441E00200101FF80901E0020F81E0020A2
:10372000481E0020F0B587B0044640683821415C4F
:1037300011B93830807808B107B0F0BD2068006852
:1037400080472068C06980470568002D4FD01F263C
:1037500001270021F2B23B4693409D4203D0761EE2
:103760003206F7D10E46069740680590001F02907A
:103770001D2842D2606800270760476020684068C3
:1037800080470390049464683A2027543B202654D1
:103790000726029886401C4A304639463B46FCF7CD
:1037A00044FE28187941401EB9412A463B46FCF7A1
:1037B00054FEA762E76227636763A061E161039833
:1037C0002062F8430146059AFCF70EFEC0430699B5
:1037D0002187A560E0602661049C204600F0D0FDB2
:1037E000204607B0F0BC02BC8E4600F027BC002289
:1037F00000920648093015A103E000220092034818
:1038000003A1134600F0D0F840420F0005010480E8
:103810005469636B6572206E756D626572206F66A8
:103820002062697420697320677265617465722013
:103830007468616E203332206F72206C6573732060
:103840007468616E20342062697473005469636B1C
:103850006572206672657175656E63792069732083
:103860007A65726F000000001448016881F388884F
:10387000406801218843F0B444464D4656465F46B1
:10388000F0B401218843014602460346044605463A
:10389000064607468046814682468346844680F334
:1038A00000888447F0BCA046A946B246BB46F0BC9F
:1038B0003F200406204600F0C3FEFBE70000011095
:1038C00082B00B46014600920148002200F06CF8DD
:1038D0004401FF8088B0FFF7A5FB05A80A21FFF788
:1038E0000BFE002740F2C0303C30049001200390D2
:1038F0000420019002970598411C45D08100049C4A
:103900002140800840F2C0321040244D2843039AE1
:103910004250204E304600F0A3FE0598411C33D0A3
:1039200081002140800840F2C03210402843029AB2
:103930004250304600F094FE7F1C042FDBD1019EE4
:103940000598411C20D08100049F3940800840F236
:10395000C0321040114C2043039A42500E4D28466D
:1039600000F07EFE0598411C0ED081003940800891
:1039700040F2C0321040204300274750284600F054
:103980006FFE761EDCD1B6E7054806492822FFF710
:1039900097FFC046F0490200801A06000048005018
:1039A000E04C0000F84C000082B001930D4601216C
:1039B000094BD3E84F7FC3E8441F39060AD1764646
:1039C000029F11467246FFF76BFE284601993A4660
:1039D00000F014F900F058F84C1E002083B080B5B8
:1039E00081B003AF0EC703A9009100F031F801B018
:1039F00080BC01BC03B00047F0B583B0044602258B
:103A00000027284621463A4600F039FEFFF70AFB18
:103A10000D200190012620780A2801D048B911E034
:103A20000D2F06D002A9019808702846324600F0F2
:103A300026FE28462146324600F021FE601C2778EB
:103A40000446E8E703B0F0BC01BC8646FFF72ABB9A
:103A500010B5A2B00B46024601A88421FCF786FDF2
:103A60000446842805D301A87F3005A10522FCF770
:103A7000DFFE012C02DB01A8FFF7BEFF22B010BD64
:103A80002E2E2E0A0000000001200D4AD2E84F1F02
:103A9000C2E8430F002BF9D1C80705D0FFF7C2FADF
:103AA000BFF34F8F20BFFDE7FFF708FB28B9FFF7F3
:103AB000B1FA10B10120FFF73DFBFFF70BFFC04645
:103AC000F41E002070470000F0B581B01B4801785B
:103AD00091BB012404701A4F5920162188223860A6
:103AE00039603A603B68002BF9D00420FEF7E8FA11
:103AF0002046FEF7E5FA08252846FEF7E1FA0226F9
:103B00003046FEF7DDFAA004FEF7DAFA1020FEF7E1
:103B100039FD2046FEF736FD2846FEF733FD3046D8
:103B2000FEF730FD4020FEF72DFD0648FEF762FC53
:103B3000FEF75EFF0020386001B0F0BD2C1F0020B2
:103B4000000100400090D00306480021017000F001
:103B50009FBCC04680B500F0AFFC02480121017057
:103B600080BDC0463E1E002009F0CABAB0B5421C56
:103B70001AD042087C231340420978241440E218EA
:103B80000C4BD4584007C00E0F258540AC430C4366
:103B9000D450B0BC01BC864670467146724673462E
:103BA000F4468EF300887447124813496422FFF7E5
:103BB00087FEC0463000004080B5421C12D0C91EAE
:103BC000CAB2032A0DD8C3B201219940800840F23D
:103BD000C03303400648181880BC08BC9E46FEF758
:103BE000E4BC80BD034804492722FFF769FEC046B4
:103BF00000400050E54C0000CE4E0000F0B581B012
:103C000000920D460646032040073F4C21680A46B5
:103C10000240824201D08FB200E04F42080CC3B292
:103C20003A483A46FFF7DAFE40F23110381A1328C4
:103C300045D8810001A251188F46C04600F026B831
:103C400000F027B800F028B800F029B800F02AB832
:103C500000F02BB800F02CB800F02DB800F02FB811
:103C600000F02DB800F02BB800F029B800F027B80C
:103C700000F025B800F023B800F021B800F01FB81C
:103C800000F01DB800F01BB800F03AB8A168464833
:103C900013E0A16840A010E0A1683BA00DE0A1687E
:103CA00034A00AE0A1682EA007E0A16823A004E0E8
:103CB000A16826A001E0A1681AA0FFF78FFE304698
:103CC000FFF79AFE61683948FFF788FE4DB138A0CA
:103CD000FFF792FE2846FFF78FFE37A00099FFF707
:103CE0007DFEA1683548FFF779FE21683448FFF76B
:103CF00075FE344801B0F0BC02BC8E46FFF76EBEC4
:103D000003A0FFF76BFEDAE7F81E0020634D00000A
:103D1000417373657274696F6E206661696C656466
:103D20003A2000004D65737361676551756575656F
:103D30003A20307825582C200000000054696D6529
:103D4000723A20307825582C200000004576656EA8
:103D500074466C6167733A20307825582C20000037
:103D60004D656D6F7279506F6F6C3A2030782558C1
:103D70002C20000053656D6170686F72653A2030C9
:103D80007825582C200000004D757465783A203055
:103D90007825582C200000005468726561643A2030
:103DA000307825582C2000004E4D00001C4E00009D
:103DB0000A46696C653A20002B256400094E000014
:103DC000B44D0000344D000080B5974809F078F9F3
:103DD00080BC01BC86467046714672467346F44606
:103DE0008EF300887447C04610B58E48006880077F
:103DF00002D48D4809F068F916480068C00707D159
:103E000000242046FEF7BEFC2046214609F08CF92E
:103E100010BC01BC86467046714672467346F44635
:103E20008EF300887447C04680B57E4800688007DE
:103E300002D47D4809F048F906480168012008408D
:103E400080BC02BC8E46714672467346F4468EF3C1
:103E50000088744700100440F0B597B071480068BE
:103E6000800702D4704809F02FF9704E301F0068A7
:103E7000C00701D109F04CF90120070405073C49AE
:103E80000A7882BB01950870642111910024109476
:103E9000062112910F900E940D940C940CA83549A4
:103EA0002246FFF74BF80028254654D0614CFEF718
:103EB000F1FF019D284203D020683842FCD002E087
:103EC00030683842FCD0FEF7A1FBFEF7E3FF284242
:103ED00003D020683842FCD002E030683842FCD081
:103EE000F06B53490860FEF7D5FF284204D05148D3
:103EF00001683942FCD002E030683842FCD003A8A7
:103F0000FEF7A2FB05980F900698129007980E9066
:103F100040F26C71039A511A11910499491E109143
:103F20000A9921B90B99022901D10C300E900898F9
:103F30000D9009980C900CA802A900252A46FEF7BE
:103F4000FDFF38B13A480068029908180949096824
:103F5000441A00E02C462046294617B0F0BC04BCA9
:103F6000964672467346F4468EF300887447C04600
:103F7000341F0020301F0020F0B581B004462948CE
:103F80000068800702D4284809F09EF8274E301FA9
:103F90000068C00701D109F0BBF825480460012082
:103FA00004040507FEF776FFC000224F03D53868EA
:103FB0002042FCD002E030682042FCD0FEF726FB15
:103FC000FEF768FF284203D038682042FCD002E0A8
:103FD00030682042FCD016480068F063FEF75AFFB4
:103FE000284203D038682042FCD002E030682042EA
:103FF000FCD01148FEF7E6FB0A484069800702D072
:1040000040F22C1000E05A2000F02AFB01B0F0BC76
:1040100001BC86467046714672467346F4468EF37E
:1040200000887447080200400100807204100440B8
:10403000381F00200410045040490000F0B581B042
:10404000044646683A20305C18B93046393000786A
:1040500008B101B0F0BD204600F092F967687968B8
:10406000E1B103C93B6B7A6B1D1A15468D4148D2ED
:10407000C01A91413D69BA69FB69121A8B4128D374
:10408000BA68264B9A4221D03B23FB5C93B11A4677
:10409000FCF7AAF90023224A801813E0306AF1687D
:1040A0003269101808402168096901B0F0BC04BCED
:1040B0009646084700230093009BFCF7B6F9184A80
:1040C0008018009B5941154AFCF7C7F9854200D377
:1040D0000546386A4019FD680540306A854217D0A8
:1040E0002068016928468847206840688047316A0F
:1040F0008D4202D9A84202D303E0A842A9D3884244
:10410000A7D22068406901B0F0BC02BC8E460047CF
:1041100004A00DA140F21B12FFF7D2FB40420F009A
:104120003F420F006D617463685F7469636B2021A7
:104130003D2071756575652D3E7469636B5F6C61BB
:1041400073745F72656164002E5C6D6265642D6FCF
:10415000735C68616C5C6D6265645F7469636B65F8
:10416000725F6170692E630070B50446FEF75AFFF6
:104170002068C068804760683A21415C09BB0146FD
:10418000393101220A704168A9B1204600F0F8F8DF
:104190006068026B436B416860C90839521BB341C8
:1041A00009D3CA68426003681BB188689847606891
:1041B0004268002AE9D13921002242542046FFF703
:1041C0003DFF70BC01BC8646FEF76CBF80B500F0B9
:1041D00001F880BDB0B50446FFF7A4FAFEF722FF50
:1041E000204600F0CDF86068046B456BFEF75AFF7F
:1041F00020462946B0BD00009C480121016000F026
:10420000EFB9C04680B582B0FEF70CFF12480188B6
:10421000C9B1491E0180080407D1104801688022F5
:10422000914301600E4808F04BFFFEF73BFF02B0E0
:1042300080BC01BC86467046714672467346F446A1
:104240008EF300887447FEF72DFF00220092054888
:1042500005A11346FFF7A8FB3C1E00200C900B4065
:10426000190000802401048054524E4720696E6971
:104270007469616C697A6174696F6E20636F756EC1
:1042800074657220776F756C6420756E64657266F4
:104290006C6F7700F0B5002011B90AB1C04310E08F
:1042A0006AB18C18294D01262F6837432F602F687B
:1042B000BF07FCD56F680F70491CA142F4D103B150
:1042C0001A60F0BC02BC8E46714672467346F446D4
:1042D0008EF300887447C04680B582B0FEF7A2FE18
:1042E00016490888164A90421ED0421C0A8068B9B6
:1042F000144808F0E9FE144808F0FAFE1348C168B3
:1043000080220A43C26001680906FCD5FEF7CAFE96
:1043100002B080BC01BC8646704671467246734648
:10432000F4468EF300887447FEF7BCFE002200922C
:10433000074808A11346FFF737FBC0463C1E002084
:10434000FFFF0000190000801F00000400900B40D8
:104350002301048054524E4720696E697469616C70
:10436000697A6174696F6E20636F756E746572200F
:10437000776F756C64206F766572666C6F7700007E
:10438000F0B585B0044646683A20305C002866D116
:104390002068406880476168096A88425FD0316A56
:1043A0003062401AB168F46804407048814201D11B
:1043B00000224EE0049137463A376C4A00212046ED
:1043C00003910B46FCF731F80D467F780290C7B198
:1043D0003A46FCF719F8044601913A46FCF704F80E
:1043E000029A101A8D41B16A0918B162F06A6841E7
:1043F000F062049D4A1B0246039B9A4122D2019A15
:1044000027E0049A039F3B46FCF727F804460191F6
:10441000049A3B46FCF709F83B46029A101A8D4174
:10442000B16A4118B162F06A6841049FF062CA1B28
:1044300002469A41019A0CD3C91BB1629841F062BD
:10444000641C05E0491BB1629841F062641C019A4A
:104450005A41306B00193063706B5041706305B086
:10446000F0BDC046014801210160704708000540C9
:104470003A4801210160BFF34F8FBFF36F8F704740
:104480000248012101606D480160704704E200E0CC
:1044900080B5324801210160BFF34F8FBFF36F8FAA
:1044A0002F4808F00DFE58480021018080BDC0460D
:1044B000004870476C4F0000B0B52748018839B1FB
:1044C000264801210160BFF34F8FBFF36F8FB0BD4E
:1044D00001250580224C0022204640F2002108F0F0
:1044E000FFFD204608F0F0FD1E4808F001FE1E4CBE
:1044F0002046FEF73BFB1D4AB0FBF2F3591E802914
:104500001FD25A43801A21D10320C00601432160E3
:104510004948606030480068C021304A42500F4826
:104520000560BFF34F8FBFF36F8F680721680143AA
:104530002160A80721680143216020688001FCD523
:10454000B0BD0BA019496922FFF7BAF918A01749A5
:104550006A22FFF7B5F9C0463C1F002084E100E065
:104560000200805E020000040000054040420F008F
:10457000287072657363616C655F74696D65722024
:10458000213D202875696E7433325F7429202D31E6
:1045900029202626207072657363616C655F7469DB
:1045A0006D6572203C3D203132370000054F000020
:1045B00028636C6B5F74696D65722025204E555FB2
:1045C000544D52434C4B5F5045525F534543292055
:1045D0003D3D20300000000008ED00E0F941000002
:1045E0000248016809B10248084770479C0D002045
:1045F000404F000080B50448008808B9FFF75CFF11
:104600000248006880BDC0463C1F00200C000540E9
:10461000074A01215160074B1960022800D8022087
:10462000054B984200D3184610600448016070475B
:104630000400054084E200E0FFFFFF0004E100E029
:1046400080B5064900F094F8FCF79BF940F2E83198
:10465000484380BC02BC8E4600F002B800007A4499
:1046600070B50446FEF7CAFE0546FFF7AFFD0646E5
:104670002846FFF7ABFD801BA042F9D370BDB0B553
:1046800014460D46FEF7CEFB38B10168CB682946CB
:1046900022469847002802D4B0BD092400E04442D5
:1046A000FBF778FE04600020C043B0BDF8B5040CF1
:1046B0008BB2264682B25E43104658430D0C370C2F
:1046C000360400218019164679416E43370C3604B2
:1046D0008019264679416E438919F8BD4900CA02FE
:1046E0000243100000D004204A0D01D001221043E3
:1046F000044A490D914201D102210843012800D109
:1047000005207047FF07000030380A2801D2012039
:10471000704700207047000010B500290AD00878C3
:10472000002807D005487844FCF7E4F8002801D0B9
:10473000002010BD0248784410BD00006E08000043
:104740006608000010B500290AD00878002807D0B4
:1047500005487844FCF7CEF8002801D0002010BDB1
:104760000248784410BD0000520900004A090000C8
:1047700070B5420064414B005C41120E39D01B0EF3
:1047800038D0FF2A3CD0FF2B3AD0D2187F3A4002D3
:104790004902400A490A4518ED0106004E43000A45
:1047A000090A48430104731A4019190C4318990F58
:1047B00004D05B08012149075B1A521CD80904D3B5
:1047C000401CF50301D19D0607D0FF2A08D2D5056C
:1047D00006D0E4072043401970BD0125A843F4E743
:1047E000002A01DCE00770BD2402FF202043C00541
:1047F00070BD1B0EFF2A03D0FF2B01D0E00770BD58
:10480000FF2636064500B54206D84D00B54203D80E
:10481000D218FF2A00D0E7E7004870BD0000C07F33
:1048200003B402487844844603BC6047F1C8FFFFE4
:1048300003B402487844844603BC604759CBFFFF69
:1048400030313233343536373839414243444546C6
:1048500040305800303132333435363738396162C0
:1048600063646566403078000400000800000000C2
:104870000000000200010000100000000000000025
:104880000000000030313233343536373839616258
:1048900063646566787000303132333435363738CA
:1048A0003941424344454658500000000240000050
:1048B000000000A00000000005400000000000C84B
:1048C000000000000C4000000000409C00000000C0
:1048D000194000000020BCBE000000003440000071
:1048E000BFC91B8E00000004B5400000504BCFD064
:1048F0006607E2CF010000006C4100003E8251AA31
:10490000DFEEA73401000000D9420000DCB5A0E2D0
:104910003A301F97FFFFFFFFB4450000FD25A0C8F8
:10492000E9A3C14FFFFFFFFFFF3F00000000008031
:1049300000000000FF3F00000000008000000000B9
:10494000D007000001000000010000000600000088
:104950000000000000000000000000000100000056
:10496000000000000000000000000000212E0000F8
:10497000D32D0000B52D0000CB2D0000BD2D000073
:10498000C72D0000F52D0000CF2D0000F92D0000EF
:10499000112E0000C12D00001B2E0000092E00006A
:1049A000032E0000EF2D0000DD2D00008D2E0000F5
:1049B000D72D0000E92D0000912E00000F2E0000E1
:1049C0000000000004000000080000000C000000CF
:1049D00000000000040000000800000010000000BB
:1049E00001020204D7000000890100006F020000EC
:1049F0001903000064050000E40700200400000023
:104A00000000000000000100D04C00000100000088
:104A1000040000000000011000000700D84C000056
:104A20000100000004000000903C80020002000031
:104A30000600000006FF430700200000FFFFFFFF05
:104A4000FFFFFFFF00400000030000000300000024
:104A5000000001001D000000010000000000000136
:104A60000700000007000000000002000C0000002A
:104A70000C00000000000400FFFFFFFF0100807237
:104A8000000000001C0000041CFE034008000000A1
:104A9000070000040700004020000000FFFFFFFFA8
:104AA000FFFFFFFF400000000C0000080C0000802A
:104AB000800000001D0000041D00007700010000C0
:104AC0001A0000049A3C8042002000000400000408
:104AD0000400005F00000200050000040500405FC4
:104AE000000002001000000810000080000000011B
:104AF00011000008110000800000000212000008F0
:104B00001200008000000004130000081300008061
:104B1000000000080D0000040D00406601000000C8
:104B20000E0000040E006066020000000F0000048A
:104B30000F00A06604000000060000080600C0A6E2
:104B400008000000FFFFFFFFFFFFFFFF1000000055
:104B5000070000080700E0A6200000001000000485
:104B6000103D80570000010011000004913DA05746
:104B70000000020012000004123C8C7700000400C8
:104B800013000004933CAC770000080014000004FC
:104B9000143DCC770000100015000004953DEC7723
:104BA0000000200008000004080000400100000090
:104BB0000900000409000040020000000A0000048F
:104BC0000A000040040000000000000800FC07B6D6
:104BD000000001000100000801FD27B600000200EE
:104BE0000200000802FE47B600000400180000049E
:104BF00018000040010000001600000816000080A8
:104C000000000100170000081700008000000200EB
:104C10001A0000081A000080000010001B000008A5
:104C20001B0000800000200017000004177F345292
:104C300000008000FFFFFFFFFFFFFFFF00000001FB
:104C40001F00000419000080000000001B00000489
:104C50009B3C804201000000080000080800008022
:104C600000000100090000080900008000000200A7
:104C70000000000080DE280080C84D0000A77600FC
:104C800000349E008012C700809FEE00007E170156
:104C9000805C400180E9670100C890010055B801BF
:104CA0000000000080DE2800001A4F0080F8770026
:104CB00080859F000064C80000F1EF0080CF1801DC
:104CC00000AE4101003B69018019920180A6B90143
:104CD00000000000000800000000011000080000B3
:104CE0006F626A2D3E70696E20213D202850696EEA
:104CF0004E616D65294E43002E2F6D6265642D6FE8
:104D0000732F746172676574732F54415247455411
:104D10005F4E55564F544F4E2F5441524745545FA6
:104D20004D323335312F6770696F5F6F626A65632B
:104D3000742E68000A2D2D204D6265644F53204566
:104D400072726F7220496E666F202D2D0A004B65BE
:104D5000726E656C204572726F723A2030782558F9
:104D60002C20000A0A2B2B204D6265644F532045EE
:104D700072726F7220496E666F202B2B0A45727219
:104D80006F72205374617475733A203078255820FF
:104D9000436F64653A202564204D6F64756C653AF5
:104DA0002025640A4572726F72204D6573736167C6
:104DB000653A20000A466F72206D6F726520696E39
:104DC000666F2C2076697369743A20687474707306
:104DD0003A2F2F6D6265642E636F6D2F732F65728E
:104DE000726F723F6572726F723D3078253038583D
:104DF000267467743D4E555F50464D5F4D323335D6
:104E0000315F4E5053415F53000A4572726F7220FA
:104E100056616C75653A2030782558000A4C6F63EE
:104E20006174696F6E3A2030782558002867756183
:104E300072642026204358415F47554152445F4DDC
:104E400041534B29203D3D204358415F4755415236
:104E5000445F494E49545F494E5F50524F47524557
:104E60005353002E5C6D6265642D6F735C706C61D2
:104E700074666F726D5C736F757263655C6D62658D
:104E8000645F72657461726765742E637070004E42
:104E90006F6E2D73656375726520646F6D61696EE9
:104EA00020747269657320746F20636F6E74726F03
:104EB0006C20736563757265206F7220756E646512
:104EC00066696E6564206D6F64756C652E002E5C7E
:104ED0006D6265642D6F735C746172676574735C79
:104EE0005441524745545F4E55564F544F4E5C54B3
:104EF00041524745545F4D323335315C70696E6DB8
:104F000061702E63002E5C6D6265642D6F735C743E
:104F10006172676574735C5441524745545F4E55E6
:104F2000564F544F4E5C5441524745545F4D3233B7
:104F300035315C75735F7469636B65722E63000055
:104F4000484F0000501E0020553B0000F545000072
:104F500071440000654400001146000081440000D7
:104F6000493B0000B14400000000000040420F0037
:104F700018000000C0500000E0070020DC05000021
:104F8000F01D0000A4530000BC0D0020841100009F
:104F90001C0200001001000043000000F8FFFFFFAA
:104FA000004040404040404040404141414141403C
:104FB00040404040404040404040404040404040F1
:104FC0004005020202020202020202020202020280
:104FD0000220202020202020202020020202020285
:104FE00002029090909090901010101010101010DD
:104FF00010101010101010101010101002020202E9
:10500000020288888888888808080808080808082C
:105010000808080808080808080808080202020228
:105020004000000000000000000000000000000040
:105030000000000000000000000000000000000070
:105040000000000000000000000000000000000060
:105050000000000000000000000000000000000050
:105060000000000000000000000000000000000040
:105070000000000000000000000000000000000030
:105080000000000000000000000000000000000020
:105090000000000000000000000000000000000010
:1050A000000000001C00000043000000F8FFFFFFAC
:1050B0000C0000000E0000000F0000002E00000099
:1050C000101D3000000085B00A460346039002A878
:1050D000017001920093FFE74CF2C000C4F21B1074
:1050E0000B680121084201D0FFE7F51432001430AB
:1050F0000C01684022114301604CF20C10100B228D
:1051000021016003984CF204010E50150108600261
:10511000A80078002808D1FFE70020C0434CF2081F
:10512000181309E00C3132200B4AF60321C0F25566
:105130000101606A421056114600051CBFF36F8FD3
:105140007C100400684090120B14E18E10080120BE
:10515000049002E00006201DFFE7049805B07047A8
:10516000B0B587B013460C460546059004910392EE
:1051700040F200107E12596A12166E1288B841E091
:10518000100802930194009503B2100701200690C5
:1051900038E02A42205C3204EA500440F204102134
:1051A000F83006FFE740F2502024040068101EC6C5
:1051B000D11E56011E321CF8120A646310425CE3D1
:1051C0000AE0B812007204111EFFE7069807B0B09B
:1051D000BD82B0014601900091804004012291629D
:1051E000452811D01004084602F2072C81B0BA16E7
:1051F000260615B8714696C8AE054898360098162A
:1052000000981004009801A6100480B584E8100AE4
:10521000029002984FF6FF72CE044310400E7004C5
:105220000002CF0E14100F22120510400122520569
:10523000904201910B64170298C2101501CFF6E05D
:105240007140180121FFF7A4FE039005E0029800C9
:105250000C129E0C380CFFE7039804B080BD80B59B
:1052600086D048090490039100200290D2280902B8
:1052700098039988420FD21E101202994A1C02927A
:1052800089004058FFF7B8FF002803B8180801202C
:10529000059003E0EBB416059010040598064A58F3
:1052A00004B0B5884220120690059104920598C07A
:1052B0001C03218843059006BC1271BC0C0C2C7198
:1052C000084006900393029401953603162170213D
:1052D00068140400283F369E0640030407520498D1
:1052E00000F03CF88A100B07900CE00698001D06B1
:1052F000906410041D04907E1C051F0590BCA8033B
:105300001A078418040798088456839C1642227052
:10531000040078010A90070002019A101810D204C4
:10532000104206203C0601980091037E0305163CBE
:1053300005322E76002E36532E857E85386D5E041E
:1053400029CA0546341D98037F901DB80428110012
:1053500068049900900846FFF76CFF009981423875
:10536000212205125632A81A655642000110056C1A
:10537000DC02FF0161086101023100010025006CBF
:105380004900006941000030B54D4620B44569032D
:10539000699946C368826841680068A84720BCA92B
:0453A0004630BD00D6
:10D000007FE97FE9F5F710BE7FE97FE9F5F72ABEF2
:10D010007FE97FE9F5F748BE7FE97FE9F5F776BE5E
:10D020007FE97FE9F5F794BE7FE97FE9F6F786B8F7
:10D030007FE97FE9F6F7DEB87FE97FE9F6F7E2B846
:10D040007FE97FE9F6F7E6B87FE97FE9F6F7EFB821
:10D050007FE97FE9F6F72BB97FE97FE9F6F734B985
:10D060007FE97FE9F6F73DB97FE97FE9F6F748B94F
:10D070007FE97FE9F5F72AB87FE97FE9F5F79EB800
:10D080007FE97FE9F5F7AAB87FE97FE9F5F7B4B85A
:10D090007FE97FE9F5F7C0B87FE97FE9F5F7DCB80C
:10D0A0007FE97FE9F5F718B97FE97FE9F5F728B956
:10D0B0007FE97FE9F5F73CB97FE97FE9F5F744BC03
:10D0C0007FE97FE9F4F7EEBE7FE97FE9F4F71EBF61
:10D0D0007FE97FE9F5F762B97FE97FE9F5F77CB988
:10D0E0007FE97FE9F5F724BA7FE97FE9F5F720BC0E
:10D0F0007FE97FE9F5F73EBC7FE97FE9F5F762BCA0
:10D100007FE97FE9F6F732BD7FE97FE9F6F75CBE9C
:10D110007FE97FE9F6F768BE7FE97FE9F6F784BE2D
:10D120007FE97FE9F6F798BE7FE97FE9F6F724BF4C
:10D130007FE97FE9F7F766B87FE97FE9F7F7AAB8F3
:10D140007FE97FE9F7F7C8B80000000000000000A1
:10D1500000000000000000000000000000000000CF
:10D16000FFFFFFFFFFFFFFFFFFFFFFFFFFFFFFFFCF
:10D17000FFFFFFFFFFFFFFFFFFFFFFFFFFFFFFFFBF
:10D18000FFFFFFFFFFFFFFFFFFFFFFFFFFFFFFFFAF
:00000001FF
